:100000000C942A000C9447000C9447000C94470071
:100010000C9447000C9447000C9447000C94470044
:100020000C9447000C9447000C9447000C94470034
:100030000C9447000C9447000C9447000C94470024
:100040000C9447000C9447000C9447000C94470014
:100050000C94470011241FBECFE5D8E0DEBFCDBF12
:1000600010E0A0E6B0E0ECE1F8E002C005900D92EF
:10007000AA36B107D9F720E0AAE6B0E001C01D9288
:10008000AE37B207E1F70E9449000C940C040C94BF
:1000900000000E947F000E949D0323E530E0C3E53D
:1000A000D0E007C00E948C009E01C82FD0E001C0A4
:1000B0009E01C217D307B1F3C335D10521F40E94C5
:1000C00084039E01F6CFC634D10521F40E94A80313
:1000D0009E01EFCFC234D10521F40E94C1039E01DD
:1000E000E8CFC235D10521F40E94DA039E01E1CFA9
:1000F000CC34D105E9F60E94F3039E01DACF40E04B
:1001000060E083E00E94920141E061E083E00E94B0
:1001100092010E94400308950E94490308950E949D
:100120004D030895CF93DF93EC0141E0698188810D
:100130000E94920141E06A8188810E94920141E01F
:10014000698188810E94920141E06A8188810E94D0
:10015000920140E0698188810E942D0240E06A811D
:1001600088810E942D0240E06B8188810E942D02CF
:1001700040E06C8188810E942D02DF91CF9108952B
:100180000F931F93CF93DF938C01EC01C60FD71F02
:1001900041E06981FC0180810E942D0240E06B8179
:1001A000F80180810E942D02DF91CF911F910F9164
:1001B00008950F931F93CF93DF938C01EC01C60F2B
:1001C000D71F40E06981FC0180810E942D0241E03F
:1001D0006B81F80180810E942D02DF91CF911F91E8
:1001E0000F9108950F931F93CF93DF938C01EC0130
:1001F000C60FD71F40E06B81FC0180810E942D0259
:1002000040E06981F80180810E942D02DF91CF9149
:100210001F910F910895CF93DF93EC0141E0698125
:1002200088810E9492018A819B818130910531F4FD
:1002300040E0698188810E942D0207C0892B29F442
:1002400041E0698188810E942D02DF91CF9108955C
:10025000FC01228133812130310531F441E061819B
:1002600080810E942D020895232B31F440E0FC018F
:10027000618180810E942D020895FC0122813381D9
:100280002130310531F440E0618180810E942D02EE
:100290000895232B31F441E0FC01618180810E94AB
:1002A0002D0208958430C0F4813051F028F082305E
:1002B00059F0833069F013C06ABB81E090E0089583
:1002C00067BB81E090E0089564BB81E090E0089511
:1002D00061BB81E090E0089580E090E0089580E0C7
:1002E00090E008958430C0F4813051F028F08230DD
:1002F00059F0833069F013C06BBB81E090E0089542
:1003000068BB81E090E0089565BB81E090E00895CE
:1003100062BB81E090E0089580E090E0089580E085
:1003200090E00895843008F086C0813039F138F0CB
:10033000823009F442C0833009F45EC07FC041308E
:1003400069F42AB381E090E002C0880F991F6A9592
:10035000E2F7822B8ABB81E090E00895411171C0E1
:100360002AB381E090E002C0880F991F6A95E2F7F6
:10037000809582238ABB81E090E00895413069F442
:1003800027B381E090E002C0880F991F6A95E2F7D9
:10039000822B87BB81E090E00895411155C027B3BF
:1003A00081E090E002C0880F991F6A95E2F780957E
:1003B000822387BB81E090E00895413069F424B343
:1003C00081E090E002C0880F991F6A95E2F7822BC6
:1003D00084BB81E090E00895411139C024B381E0ED
:1003E00090E002C0880F991F6A95E2F780958223FA
:1003F00084BB81E090E00895413069F421B381E04D
:1004000090E002C0880F991F6A95E2F7822B81BBAA
:1004100081E090E0089541111DC021B381E090E09A
:1004200002C0880F991F6A95E2F78095822381BBED
:1004300081E090E0089580E090E0089580E090E011
:10044000089580E090E0089580E090E0089580E0D5
:1004500090E0089580E090E00895843008F089C02D
:10046000683008F089C0813039F138F0823009F401
:1004700042C0833009F45EC082C0413069F42BB3BE
:1004800081E090E002C0880F991F6A95E2F7822B05
:100490008BBB81E090E00895411174C02BB381E0E3
:1004A00090E002C0880F991F6A95E2F78095822339
:1004B0008BBB81E090E00895413069F428B381E07E
:1004C00090E002C0880F991F6A95E2F7822B88BBE3
:1004D00081E090E00895411158C028B381E090E098
:1004E00002C0880F991F6A95E2F78095822388BB26
:1004F00081E090E00895413069F425B381E090E017
:1005000002C0880F991F6A95E2F7822B85BB81E0B4
:1005100090E0089541113CC025B381E090E002C015
:10052000880F991F6A95E2F78095822385BB81E049
:1005300090E00895413069F422B381E090E002C078
:10054000880F991F6A95E2F7822B82BB81E090E0C9
:100550000895411120C022B381E090E002C0880FCD
:10056000991F6A95E2F78095822382BB81E090E033
:10057000089580E090E0089580E090E0089580E0A4
:1005800090E0089580E090E0089580E090E0089584
:1005900080E090E0089580E090E00895843000F5D8
:1005A000813061F028F0823079F0833099F01BC0FF
:1005B00089B3FB01808381E090E0089586B3FB015D
:1005C000808381E090E0089583B3FB01808381E024
:1005D00090E0089580B3FB01808381E090E008956E
:1005E00080E090E0089580E090E008958430F8F590
:1005F000683008F03FC0813099F028F08230E9F08F
:10060000833041F13AC089B390E002C09595879557
:100610006A95E2F78170FA01808381E090E00895A5
:1006200086B390E002C0959587956A95E2F7817050
:10063000FA01808381E090E0089583B390E002C0E6
:10064000959587956A95E2F78170FA01808381E03C
:1006500090E0089580B390E002C0959587956A95E3
:10066000E2F78170FA01808381E090E0089580E0F4
:1006700090E0089580E090E0089580E090E0089593
:100680001BB888E18AB986E880BD83E389B910BCCC
:1006900008955F9BFECF8CB108958CB95E9BFECF11
:1006A0005D9BFECF08951F93CF93DF93C0E0D1E011
:1006B00010E006C0EC2FF0E0E659FF4F9083CF5FCB
:1006C0000E9449039D2F8D3009F4912F8D3091F7B1
:1006D0008AE690E0DF91CF911F9108950F931F93C9
:1006E000CF93FC018081882359F08F01C0E0CF5F58
:1006F0000E944D03F801EC0FF11D80818111F7CFAD
:10070000CF911F910F91089560E070E085E690E031
:100710000E94F20061E070E085E690E00E94F20045
:1007200060E070E080E690E00E94F20061E070E03E
:1007300080E690E00E94F200089585E690E00E9435
:10074000920080E690E00E9492000E948403089547
:1007500060E070E085E690E00E94C00061E070E03B
:1007600085E690E00E94C00060E070E080E690E0E6
:100770000E94C00061E070E080E690E00E94C0004E
:10078000089560E070E085E690E00E94D90061E0A5
:1007900070E085E690E00E94D90060E070E080E6BD
:1007A00090E00E94D90061E070E080E690E00E9455
:1007B000D900089561E070E085E690E00E94C000F5
:1007C00061E070E080E690E00E94C00060E070E0D0
:1007D00085E690E00E94D90060E070E080E690E05D
:1007E0000E94D900089561E070E085E690E00E94E3
:1007F000D90061E070E080E690E00E94D90060E0FE
:1008000070E085E690E00E94C00060E070E080E665
:0C08100090E00E94C0000895F894FFCF13
:0A081C0001000201030000020103C5
:00000001FF
